:02000004080AE8
:1000000000000A0874170A0800000600060005012F
:080010000402DE0500000000FF
:04001800E8130A08D7
:10001C0009480A4908B5884205D0094A824202D0EB
:10002C00121A01F097F90748074A0021121A01F039
:10003C009CF9064808BD00BF00000020E4160A0821
:10004C006800002068000020F8050020F80500205A
:10005C0070B500F003FF074B074C1E46E41AA408CA
:10006C000025A54204D056F8253098470135F8E70D
:10007C0070BD00BFA8160A08DC160A0800F012B8FA
:10008C0008B500F023F8BDE8084000F0A9BE00F068
:10009C00E1BA0078B0FA80F0400970470123037090
:1000AC007047000010B5084C204600F039F9204686
:1000BC000221C023402200F0DAF82046BDE81040AF
:1000CC00012100F0D9B800BF6C00002030B5224BE4
:1000DC0087B002AC03F11005224618685968083342
:1000EC0003C2AB421446F7D1962000F0BBFA0023B2
:1000FC005C1CE4B2102C08BF0024002206A9194491
:10010C0011F8100C0133DBB201A9102B505402F181
:10011C00010208BF0023042AF0D19DF9042000211C
:10012C000E4800F0B9F89DF9052001210B4800F0AC
:10013C00B3F89DF906200221084800F0ADF89DF9AE
:10014C0007200321054800F0A7F84FF47A7000F05F
:10015C0089FA2346CCE700BFFC130A086C00002088
:10016C0008B500F009F9BDE8084003220221014856
:10017C0000F002B86C00002010B50446084621714E
:10018C006271012100F0B8FE6079012100F0B4FE2B
:10019C00204610BD70B504460E4608250021207976
:1001AC0000F0BBFE16F0010118BF0121607900F0D0
:1001BC00B4FE013D0121207900F0AFFE15F0FF05E2
:1001CC004FEA6606EAD12946207900F0A6FE012105
:1001DC00607900F0A2FE0121207900F09EFE2946F4
:1001EC00607900F089FE322000F0B6F8607900F0FA
:1001FC00ADFEC6B23EB90121607900F07DFE294604
:10020C00607900F08AFE322000F0A6F801216079B6
:10021C0000F072FE322000F09FF8304670BD10B531
:10022C0004460121007900F078FE6079012100F08C
:10023C0074FE6079002100F070FE20790021BDE889
:10024C00104000F06ABE10B504460021007900F0A1
:10025C0064FE6079002100F060FE2079012100F03D
:10026C005CFE60790121BDE8104000F056BE783983
:10027C000270437081707047C1707047C378002B57
:10028C0014BF802000207F291EBF024B5B5CC0186E
:10029C0040B270470C140A0870B50E46114604465D
:1002AC00FFF7ECFF05462046FFF7B9FF4421204637
:1002BC00FFF770FF2046FFF7C6FF2046FFF7AFFFA2
:1002CC0066F03F012046FFF765FF29462046FFF701
:1002DC0061FF2046FFF7B7FF2046FFF7A0FF94F918
:1002EC0002102046FFF756FF2046BDE87040FFF78E
:1002FC00AABF10B504467F220021FFF7CDFF204690
:10030C007F220121FFF7C8FF20467F220221FFF741
:10031C00C3FF2046BDE810407F220321FFF7BCBF7E
:10032C00FFF7E7BF00F028B808B5024B1B685B6C01
:10033C00019308BDD001060808B5024B1B689B6CE5
:10034C00019308BDD001060808B5024B1B685B6819
:10035C00019308BD9C01060808B5024B1B68DB68BD
:10036C00019308BD9C01060808B5024B1B685B692C
:10037C00019308BD9C01060808B5024B1B681B685D
:10038C00019308BDB001060808B5024B1B689B68B9
:10039C00019308BDB001060808B5024B1B68DB6869
:1003AC00019308BDB001060808B5024B1B681B6918
:1003BC00019308BDB001060808B5024B1B685B69C8
:1003CC00019308BDB001060808B5024B1B681B6EF3
:1003DC00019308BDAC01060808B5024B1B685B6EA7
:1003EC00019308BDAC01060808B5024B1B689B6E57
:1003FC00019308BDAC01060808B5024B1B68DB6E07
:10040C00019308BDAC01060808B5024B1B681B6FB5
:10041C00019308BDAC01060808B5024B1B685B6F65
:10042C00019308BDAC01060808B5034B1B68D3F853
:10043C008030019308BD0000AC01060808B5024BE2
:10044C001B68DB69019308BDB401060808B5024BB3
:10045C001B681B6A019308BDB401060808B5024B62
:10046C001B689B69019308BDC401060808B5024BC3
:10047C001B685B6A019308BDC401060808B5024BF2
:10048C001B689B6A019308BDC401060808B5024BA2
:10049C001B68DB6A019308BDC401060808B5024B52
:1004AC001B681B6B019308BDC401060808B5024B01
:1004BC001B685B6B019308BDC401060808B5024BB1
:1004CC001B689B6B019308BDC401060808B5024B61
:1004DC001B681B6C019308BDC401060808B5024BD0
:1004EC001B681B68019308BDD801060808B5024BB0
:1004FC001B681B69019308BDD801060808B5024B9F
:10050C001B685B69019308BDD801060808B5024B4E
:10051C001B689B69019308BDD801060808B5024BFE
:10052C001B68DB69019308BDD801060808B5024BAE
:10053C001B681B6A019308BDD801060808B5024B5D
:10054C001B689B6C019308BDC001060808B5024BE3
:10055C001B685B68019308BDA401060808B5024B33
:10056C001B685B69019308BDA401060808B5034B21
:10057C001B68D3F89030019308BD0000A401060855
:10058C0008B5034B1B68D3F89C30019308BD0000E1
:10059C00A401060808B5024B1B68DB6B019308BD70
:1005AC00CC01060808B5024B1B685B68019308BDBB
:1005BC00C801060808B5024B1B689B68019308BD6F
:1005CC00C801060808B5024B1B68DB68019308BD1F
:1005DC00C801060808B5024B1B681B69019308BDCE
:1005EC00C801060808B5024B1B685B69019308BD7E
:1005FC00C801060808B5024B1B689B69019308BD2E
:10060C00C801060808B5024B1B68DB69019308BDDD
:10061C00C801060808B5024B1B681B6A019308BD8C
:10062C00C801060808B5024B1B681B6B019308BD7B
:10063C00C801060808B5024B1B685B6B019308BD2B
:10064C00C801060808B5024B1B681B68019308BD5E
:10065C00A001060808B5024B1B685B68019308BD36
:10066C00A00106080021FFF779BF10B58368044686
:10067C0013B1032201469847204610BD7047F8B5C8
:10068C00064615460C468F18BC4206D0336814F843
:10069C00011B9B6830469847F6E72846F8BD0022B8
:1006AC00007CFFF791BE0021007CFFF795BE002176
:1006BC00007CFFF799BE0021007CFFF79DBE002156
:1006CC00007CFFF7A1BE10B50446142100F0CFFC4E
:1006DC00204610BD10B50446002363604FF47A73B6
:1006EC00A360044B2174084623601146FFF79CFE5F
:1006FC00204610BD24140A080021007CFFF78CBE94
:10070C00704710B50446182100F0B1FC204610BD0E
:10071C00F8B50F4600F10806051D002416F8011D5A
:10072C000A22384600F0E7F8AE42044407D0002C09
:10073C00F4D02E21384600F0DBF80444EEE72046D6
:10074C00F8BD000010B50446044B112240F8043BE0
:10075C00002100F00AFE204610BD00BF4C140A0810
:10076C000346074A10B543F8042B01F1100251F867
:10077C00044B914243F8044BF9D10A781A7010BD1E
:10078C004C140A08024A4160026004220275704748
:10079C004C140A0810B59DF8084044EA032343EAB8
:1007AC00024242EA016104234160037510BD00005E
:1007BC0037B5044D05609DF818500095FFF7EAFF1A
:1007CC0003B030BD4C140A08014A024B1A60704742
:1007DC00CE140A087400002000231A464068FFF764
:1007EC00E1BE002202214068FFF7ECBE0022114658
:1007FC004068FFF7DFBE002211464068FFF7EABEF3
:10080C0000231A4619464068FFF7ECBE00231A462F
:10081C0019464068FFF7EEBE002281F001014068E6
:10082C00FFF7F0BE00224068FFF7FCBE0022114625
:10083C004068FFF7FFBE002211464068FFF7EABE92
:10084C0070B516468EB0044608A8FFF77BFF112240
:10085C00002103A800F089FD304600F0B7FD00250B
:10086C000A4B009581B25B6803AA3046FFF766FE1F
:10087C0020B129462046FFF785FF03E003A9204657
:10088C00FFF76EFF20460EB070BD00BFFC040020C9
:10089C00024B034A1A6000225A607047780000200D
:1008AC0044150A08F8B506460D468F180024BD42BB
:1008BC000CD0336815F8011B9B683046984700280C
:1008CC0001DB0444F3E7002C08BF04462046F8BDC6
:1008DC0070B505460C46084649B100F077FD2B680B
:1008EC00024621462846BDE87040DB68184770BDBB
:1008FC0003689B681847012A98BF0A2230B50B463B
:10090C008BB000218DF824100DF12304B3FBF2F50C
:10091C0005FB1233DBB2092B94BF30333733DBB218
:10092C00214604F801392B46002DEFD1FFF7D0FFFB
:10093C000BB030BD10B50446FFF797FE204610BD36
:10094C00034800238360034A034900F08BBB00BFBC
:10095C00800000206800002041090A0810B5044BF3
:10096C0004460360C06808B1FFF7E6FC204610BDE2
:10097C0078150A0810B50446FFF7F0FF2046102141
:10098C0000F075FB204610BD70B504460E46074BB3
:10099C000025036040F80C5FFFF7C6FC304626715B
:1009AC00FFF74CFDA560204670BD00BF78150A0806
:1009BC000079FFF74BBD10B50446006818B1FFF77E
:1009CC0049FE0023236010BD10B50446FFF7F3FF6A
:1009DC00204610BD4FF6FF7310B5084C0020206068
:1009EC00A080A07120816381FFF7B0FD2046BDE897
:1009FC001040034A034900F035BB00BF90000020B3
:100A0C0068000020D5090A08024B1A68024B1A60CC
:100A1C00704700BF000000209C000020704741740C
:100A2C00704708B5007CFFF751FD20EAE07008BD67
:100A3C0008B5007CFFF722FD20EAE07008BD08B580
:100A4C00007CFFF72BFD30EA200028BF4FF0FF3071
:100A5C0008BD08B5007CFFF719FD30EA200028BF5F
:100A6C004FF0FF3008BD007CFFF720BD10B50446E9
:100A7C00142100F0FCFA204610BD70B5457C0446EC
:100A8C000E4625B9007CFFF721FD002805DD314617
:100A9C00207CBDE87040FFF7E9BC284670BD000023
:100AAC0010B5044608461146002262604FF47A7273
:100ABC00A260054A20742260012262741A46FFF774
:100ACC00CDFC204610BD00BFB4150A08007CFFF712
:100ADC00F5BC000038B50C4D296811F0010411D19A
:100AEC002846FFF7D6FA68B1084A2146084B094850
:100AFC00FFF7D6FF2846FFF7D1FA074A0749054802
:100B0C0000F0B0FA034838BD380100203C01002049
:100B1C00B4000020A000002068000020290A0A0868
:100B2C0041747047704708B50021007CFFF7EEFC5C
:100B3C0030EA200028BF4FF0FF3008BD08B5012176
:100B4C00007CFFF7E3FC30EA200028BF4FF0FF30B9
:100B5C0008BD08B5007CFFF7D1FC20EAE07008BDA9
:100B6C0008B5007CFFF7C2FC20EAE07008BD007CF1
:100B7C00FFF7DCBC10B50446142100F078FA2046CF
:100B8C0010BD38B50446007C0D46FFF7B7FC0028B5
:100B9C0001DC607C28B12946207CFFF7BFFC20EAF1
:100BAC00E07038BD10B50446002363604FF47A73CF
:100BBC00A360054B0846236001232174637411461E
:100BCC00FFF78CFC204610BDE4150A0810B504464E
:100BDC001422002100F0C9FB054B20466360054B35
:100BEC00E36040F2011323818123238210BD00BFF7
:100BFC0045020020C401002030B50E4D87B001A87D
:100C0C00FFF7E4FF296811F0010410D12846FFF723
:100C1C0040FA60B101AA21460748FFF7C3FF2846F6
:100C2C00FFF73CFA054A0649034800F01BFA024854
:100C3C0007B030BDC0010020480300206800002030
:100C4C00310B0A0810B504461422002100F08DFB6C
:100C5C00054B20466360054BE36040F20113238192
:100C6C008123238210BD00BFF80300206003002005
:100C7C0010B50E4C86B001A8FFF7E4FF2368DB0724
:100C8C0010D42046FFF705FA60B101AA01210848EB
:100C9C00FFF788FF2046FFF701FA064A0649044889
:100CAC0000F0E0F9024806B010BD00BF5C03002064
:100CBC00E403002068000020310B0A0800221146D2
:100CCC004068FFF787BCF0B5164689B011220F4675
:100CDC000446002103A800F048FB304600F076FBE8
:100CEC000025009581B27B6803AA3046FFF726FCED
:100CFC0020B129462046FFF745FD03E003A9204615
:100D0C00FFF72EFD204609B0F0BD002211464068C9
:100D1C00FFF780BC002211464068FFF78BBC002215
:100D2C004068FFF77FBC002281F001014068FFF7AB
:100D3C0069BC00231A4619464068FFF75BBC0023C8
:100D4C001A4619464068FFF74DBC00221146406810
:100D5C00FFF730BC002202214068FFF733BC0023B0
:100D6C001A464068FFF71EBC024B04225A60024A26
:100D7C001A607047FC04002014160A0808B5144BBE
:100D8C0033B1FFF739FF03681B699847002816DC5D
:100D9C00104B33B1FFF79EFE03681B699847002880
:100DAC0010DC0D4B0BB1AFF300800C4B7BB1FFF79C
:100DBC005FFF03681B699847002806DC08BDAFF38A
:100DCC000080E5E7AFF30080EBE7AFF3008008BDF0
:100DDC000000000000000000000000000000000007
:100DEC0008B5FFF7CBFFFFF7BFFA014B186008BD42
:100DFC000C0500200248034A0349121A00F0AABA53
:100E0C000040024004400240E0160A0807B50023E7
:100E1C0000931A466FF07701FFF7B2FB03B05DF851
:100E2C0004FB000007B543880A2B08D0502B09D1CE
:100E3C00094B1B683BB103B05DF804EB1847FFF797
:100E4C00E5FF06E0002300931A466FF07701FFF7E9
:100E5C0097FB03B05DF804FB0405002038B5104C7B
:100E6C00104D2368AB42104B0CBF012200221A70AC
:100E7C0002D0FFF7BFFF2560FFF766FA044600F0CB
:100E8C007DFA0A4B13B12046AFF3008000210748CE
:100E9C00FFF780FBBDE8384000210548FFF766BB33
:100EAC00004002401E1C279A08050020000000008C
:100EBC00310E0A0810B5044600F0B4F8FFF778FDBF
:100ECC0028B1A4F10D03022B01D8002010BD00F0B5
:100EDC006BF8FFF711FC08B1012CF6D9FFF7FAFDFE
:100EEC00FFF7F4FD18B1A4F11203012BEDD9172C67
:100EFC008CBF0020012010BD172838B504460D46C4
:100F0C000AD8FF2908D0FFF7D5FF28B1294620467B
:100F1C00BDE83840FFF738BA38BD38B504460D4641
:100F2C00FFF73AFAFF2810D0062804D84D2323FAED
:100F3C0000F0C30709D42046FFF7BCFF28B12946AF
:100F4C002046BDE83840FFF72FBA38BD10B504462F
:100F5C00FFF722FA0438C0B2012808D92046FFF75F
:100F6C00A9FF20B12046BDE81040FFF725BA0020AC
:100F7C0010BD000070B5044614252A46094E002108
:100F8C0000F0F3F9258020253146A560256128461F
:100F9C0000F087F831466060284600F082F8E06087
:100FAC00204670BD40160A0830B50E4D87B0296832
:100FBC0011F0010413D12846FFF76BF878B101A8A2
:100FCC00FFF7D8FF01AA21460748FFF783FB284605
:100FDC00FFF764F8054A0649034800F043F8024855
:100FEC0007B030BD1005002014050020680000205B
:100FFC0089060A0813B5084C00231A4619460093B3
:10100C002046FFF7D5FB2046044A054902B0BDE84F
:10101C00104000F027B800BF280500206800002011
:10102C000D070A0838B50B4D296811F001040FD1D2
:10103C002846FFF72EF858B121460748FFF7A4FCC5
:10104C002846FFF72BF8054A0549034800F00AF833
:10105C00014838BD500500204005002068000020E4
:10106C0069090A080B460146184600F065B9FFF7F6
:10107C000EB80000024B1868BFF35F8F704700BFBB
:10108C005405002010B5002814BF04460124204646
:10109C00FFF7D8FA20B9FFF7EDFF08B18047F6E764
:1010AC0010BDFFF7EFBF0000244B1A68D0075CBFE0
:1010BC0001221A60224B1A68D1075CBF01221A6008
:1010CC00204B1A68D2075CBF01221A601E4B1A68AB
:1010DC00D0075CBF01221A601C4B1A68D1075CBF99
:1010EC0001221A601A4B1A68D2075CBF01221A60DF
:1010FC00184B1A68D0075CBF01221A60164B1A688D
:10110C00D1075CBF01221A60144B1A68D2075CBF6E
:10111C0001221A60124B1A68D0075CBF01221A60B8
:10112C00104B1A68D1075CBF01221A600E4B1A686B
:10113C00D2075CBF01221A60704700BF84050020F3
:10114C00800500207C050020780500207405002017
:10115C00700500206C050020680500206405002047
:10116C00600500205C05002058050020184B1A680B
:10117C00D1075CBF01221A60164B1A68D2075CBFFC
:10118C0001221A60144B1A68D0075CBF01221A6046
:10119C00124B1A68D1075CBF01221A60104B1A68F7
:1011AC00D2075CBF01221A600E4B1A68D0075CBFD5
:1011BC0001221A600C4B1A68D1075CBF01221A601D
:1011CC000A4B1A68D2075CBF01221A60704700BF35
:1011DC00A4050020A00500209C05002098050020F7
:1011EC0094050020900500208C0500208805002027
:1011FC00184B1A68D1075CBF01221A60164B1A688B
:10120C00D2075CBF01221A60144B1A68D0075CBF6E
:10121C0001221A60124B1A68D1075CBF01221A60B6
:10122C00104B1A68D2075CBF01221A600E4B1A6869
:10123C00D0075CBF01221A600C4B1A68D1075CBF47
:10124C0001221A600A4B1A68D2075CBF01221A608D
:10125C00704700BFC4050020C0050020BC0500205D
:10126C00B8050020B4050020B0050020AC05002016
:10127C00A8050020244B1A68D0075CBF01221A6015
:10128C00224B1A68D1075CBF01221A60204B1A68E6
:10129C00D2075CBF01221A601E4B1A68D0075CBFD4
:1012AC0001221A601C4B1A68D1075CBF01221A601C
:1012BC001A4B1A68D2075CBF01221A60184B1A68C5
:1012CC00D0075CBF01221A60164B1A68D1075CBFAD
:1012DC0001221A60144B1A68D2075CBF01221A60F3
:1012EC00124B1A68D0075CBF01221A60104B1A68A7
:1012FC00D1075CBF01221A600E4B1A68D2075CBF83
:10130C0001221A60704700BFF4050020F005002090
:10131C00EC050020E8050020E4050020E005002095
:10132C00DC050020D8050020D4050020D0050020C5
:10133C00CC050020C805002010B5054C13462CB177
:10134C000A4601460220AFF3008010BD204610BDB6
:10135C000000000010B5431E0A44914204D011F85D
:10136C00014B03F8014FF8E710BD034602449342CA
:10137C0002D003F8011BFAE77047000038B5124B96
:10138C0005461C68A36BD3B91820FFF75BF943F231
:10139C000E33A06303804AF6CD33438041F23423ED
:1013AC0083804EF26D63C3804DF6EC63038105239D
:1013BC0043810B23838101220023C0E90423A36B07
:1013CC0000221D615A6138BD64000020034613F8E9
:1013DC00012B002AFBD1181A013870471D000A088E
:1013EC005D000A0889000A088D000A080000000048
:1013FC00000102030405060708090A0B0C0D0E0F69
:10140C003F065B4F666D7D077F6F777C395E797128
:10141C00000000000000000089060A08D3060A0834
:10142C00AB060A088B060A08B3060A08BB060A08AC
:10143C00C3060A08CB060A080000000000000000E2
:10144C001D070A080D070A080F070A086261756470
:10145C000053657269616C00555342536572696142
:10146C006C31007479706500706172616D00636D30
:10147C006400696400686E64007374726D00666960
:10148C006C74006C766C0061646448616E646C65AD
:10149C00720072656D6F766548616E646C65720082
:1014AC00656E756D48616E646C657273004A534F5E
:1014BC004E53747265616D4C6F6748616E646C65F8
:1014CC00720061707000253031307520005D200095
:1014DC002564002C200028293A2000205B00636F33
:1014EC006465203D200025690064657461696C7336
:1014FC00203D20000D0A0066006C6E00666E0063D5
:10150C006F64650064657461696C006E6F6E650074
:10151C00747261636500696E666F007761726E004C
:10152C006572726F720070616E696300616C6C0041
:10153C000000000000000000E5070A08EF070A0899
:10154C00F9070A0803080A080D080A0819080A0806
:10155C0025080A0831080A0839080A0843080A0845
:10156C004D080A08000000000000000069090A0884
:10157C0081090A085A00252B3033643A253032751C
:10158C000025592D256D2D25645425483A254D3AB5
:10159C002553257A0061736374696D650000000042
:1015AC000000000000000000290A0A08790A0A0855
:1015BC00870A0A08B1080A083D0A0A085F0A0A08DD
:1015CC004B0A0A08730A0A082B0A0A082F0A0A0887
:1015DC000000000000000000310B0A08810B0A0813
:1015EC008F0B0A08B1080A086D0B0A08330B0A089E
:1015FC00490B0A087B0B0A085F0B0A082D0B0A081B
:10160C0000000000000000006B0D0A08610D0A08C4
:10161C00570D0A08C90C0A084B0D0A083F0D0A0899
:10162C00330D0A082B0D0A08210D0A08170D0A089C
:10163C00D30C0A08000000000000000000000000AD
:10164C00000000000000000000000000000000008E
:10165C00000000000000000000000000000000007E
:10166C00000000000000000000000000000000006E
:10167C00000000000000000000000000000000005E
:10168C00000000000000000000000000000000004E
:10169C000000000000000000430000006D010A087B
:1016AC0031030A08D5070A089D080A084D090A08DB
:1016BC00E1090A08150A0A08750D0A0801100A083A
:1016CC00B5100A0879110A08FD110A0881120A08D6
:0416DC00000000000A
:0416E0000000000006
:1016E400A1150A080000000044160A0864160A0836
:1016F40084160A080000000000000000000000003A
:1017040000000000A4160A08000000000000000009
:1017140000000000000000000000000000000000C5
:1017240000000000000000000000000000000000B5
:1017340000000000000000000000000000000000A5
:08174400000000000400002079
:10174C00FFFFFFFF00000102030405060708090A5A
:10175C000B0C0D0E0F101112131415161718191A55
:08176C001B1C1D1E1F2028009C
:04177400785634125D
:04000005080A001CC9
:00000001FF
