:02000002D0002C
:1040000000400D00CC680D00000006000C0005010A
:084010000401DE0500000000C0
:04401800D8640D005B
:1040200009480A49884208B505D0094A824202D0A7
:10403000121A02F0FFF90748074A0021121A02F08B
:1040400004FA014808BD00BF3CE3032034680D00BA
:10405000ACE30320ACE30320F0E7032070B501F0EC
:10406000BBFA074C074BE41AA40800251E46A542DC
:1040700004D056F8253098470135F8E770BD00BFE9
:1040800030680D00F0670D0000F014B808B500F0BE
:104090005BF8BDE8084001F061BA00F0BDBD00F07A
:1040A000BBBD0078B0FA80F040097047012303706F
:1040B0007047000010B51E4B1E4C1888002101F0FF
:1040C000D9FA1D4B0121188801F0D4FA204600F0DE
:1040D00083FA9FED1A1A2046194CF0EE410AB0EE11
:1040E000410A002100F018FB204600F0B7F9C02378
:1040F00040222046022100F058F92046002100F01D
:1041000059F900221146204600F064F920460022A9
:10411000012100F05FF920460022022100F05AF947
:10412000204600220321BDE8104000F053B900BF33
:1041300040E30320B0E303203CE303200000000041
:10414000B8E30320000000002DE9F04D424B434F3F
:10415000188801F0B9FA044610B101233B6000E071
:1041600038603F4E3A6833689A426CD0DFF8048179
:10417000002C57D03B4C2568C82D0CDC284601F09C
:10418000D3FD33A3D3E9002301F034FE0135824689
:104190008B46256005E0002323604FF0000A4FF0B6
:1041A000000BB8F80000012101F075FA594650469D
:1041B00002F0DAF8B6EE001A00EE100AF7EE000A86
:1041C0000021294800F0A8FA256828480A2495FB10
:1041D000F4F804FB185252B2032100F0FBF898FBEC
:1041E000F4F204FB128252B20221204800F0F2F8ED
:1041F000642395FBF3F393FBF4F204FB123252B207
:1042000001211A4800F0E6F84FF47A7295FBF2F5B6
:1042100095FBF4F204FB125252B20021134800F055
:10422000D9F80EE02146B8F8000001F034FA9FED0D
:10423000101A0D48F0EE410AB0EE410A214600F096
:104240006BFA3B6833600A20BDE8F04D00F0F4BC27
:104250007B14AE47E17A743F40E30320C0E30320C0
:10426000C4E30320C8E30320B0E30320B8E3032042
:10427000000000003CE3032010B50A4C00F050FBA6
:1042800001230E220F21204600F0ECF8064A0749D0
:10429000204601F08DFA052204210548BDE81040B2
:1042A00000F008B8B0E30320ACE303207F440D0026
:1042B000B8E3032010B5044608462171627101215C
:1042C00001F0D8F96079012101F0D4F9204610BD40
:1042D00070B504460E4608250021207901F0DBF96F
:1042E00016F0010118BF0121607901F0D4F9013DF8
:1042F0000121207901F0CFF915F0FF054FEA66069C
:10430000EAD12946207901F0C6F90121607901F04E
:10431000C2F90121207901F0BEF92946607901F046
:10432000A9F9322000F0ECFA607901F0CDF9C6B2BB
:104330003EB90121607901F09DF92946607901F0CB
:10434000AAF9322000F0DCFA0121607901F092F93B
:10435000322000F0D5FA304670BD10B50446012178
:10436000007901F098F96079012101F094F9607900
:10437000002101F090F920790021BDE8104001F002
:104380008AB910B504460021007901F084F96079FA
:10439000002101F080F92079012101F07CF9607998
:1043A0000121BDE8104001F076B978390270437000
:1043B00081707047C1707047C378002B14BF802094
:1043C00000207F291EBF024B5B5CC01840B27047C3
:1043D000EC640D0070B50E4611460446FFF7ECFF85
:1043E00005462046FFF7B9FF44212046FFF770FF3E
:1043F0002046FFF7C6FF2046FFF7AFFF66F03F01FC
:104400002046FFF765FF29462046FFF761FF20465B
:10441000FFF7B7FF2046FFF7A0FF94F902102046F0
:10442000FFF756FF2046BDE87040FFF7AABF10B562
:104430007F2204460021FFF7CDFF20467F22012185
:10444000FFF7C8FF20467F220221FFF7C3FF204667
:104450007F220321BDE81040FFF7BCBFFFF7E7BF95
:1044600000F05EBA10B504460170427083700121FD
:1044700003EB430001F0C8FF6060204610BD10B59B
:104480000446406800F0C8FB204610BD10B500216E
:104490000446007801F0FFF8142000F031FA20788B
:1044A000012101F0F8F81420BDE8104000F028BA0E
:1044B00070B506460D46082415F0800F14BF012183
:1044C0000021707801F0E7F8013C3046FFF7DEFF8D
:1044D0006D0014F0FF04EDB2EED170BD13F0800F4B
:1044E000F8B50D46164614BFC021E0215A061F46F6
:1044F00058BF41F010013306044658BF41F008018F
:10450000700658BF41F004012A0658BF41F002016D
:104510006B0658BF41F001012046FFF7C9FF39463D
:104520002046FFF7C5FF31462046FFF7C1FF294669
:104530002046BDE8F840FFF7BBBF2DE9F84F044621
:104540000D46002191469A469DF828B0FFF7B0FF2E
:1045500000212046FFF7ACFF00212046FFF7A8FF0F
:1045600000212046FFF7A4FF03274FF00108002693
:1045700017FB0588A278F3B29A421BD9AB420DD142
:10458000616815FB07F201F80290626802F808A062
:10459000022217FB0522616801F802B0606803EB94
:1045A00043014218415C937852782046FFF796FF0A
:1045B0000136DFE720460021FFF77AFF2046002181
:1045C000FFF776FF20460021FFF772FF204600210B
:1045D000BDE8F84FFFF76CBF73B5044601210078C2
:1045E00001F048F80121607801F044F800252E46DA
:1045F000A378E9B28B4205F1010506D900230096A4
:104600001A462046FFF799FFF2E702B070BD00009E
:10461000F8B5B5EEC01AF7EE007AF1EE10FA2DED0E
:10462000048BF0EE418A48BF71EE278AB0EE408AD3
:10463000F4EEE78AF1EE10FAC4BFF7EE007A78EEF6
:10464000E78AB0EE609A18EE900A01F07FFB2FA384
:10465000D3E9002304460D4601F03EFE60B179EE39
:10466000487A17EE900A01F071FB0022264B01F008
:10467000C1FB22462B4625E0F6EE007AF4EEE78AEF
:10468000F1EE10FA2FD41EA3D3E9002320462946C9
:1046900001F022FE50B379EE487A17EE900A01F04D
:1046A00055FB224606460F462B4615A1D1E90001CF
:1046B00001F0ECF902460B463046394601F09AFB10
:1046C000114B002201F096FB044618EE100A0D462D
:1046D00001F03CFB02460B462046294601F0D8F982
:1046E00001F042FE04E019EE100A01E018EE100A93
:1046F000BDEC048B00EE100AF8BD00BFAFF30080E4
:10470000555555555555E53F0000184055555555DB
:104710005555C53F000000002DE9F0432DED048BF9
:10472000F5EE400AF1EE10FA83B080468946F0EECD
:10473000409AB0EE609AB0EE418A6ED011EE100A47
:1047400001F004FBF6EE007AB4EEE78AF1EE10FA1F
:1047500006460F4610D519EE100A01F0F7FA0022AE
:104760004D4B01F095F932463B4601F043FB01F019
:10477000FBFD08EE900A03E079EE088AE9EE488A2C
:1047800019EE900A01F0E2FA32463B4604460D4625
:104790003046394601F07CF9064618EE900A0F467D
:1047A00001F0D4FA02460B463046394601F06EF964
:1047B00001F0DAFD34A3D3E9002309EE100A2946FB
:1047C000204601F065F901F0CFFDF0EE680A01EE38
:1047D000100AB0EE490AFFF71BFFB0EE691AF0EEBF
:1047E000680AB0EE408AB0EE490AFFF711FF26A32F
:1047F000D3E9002320462946F0EE409A01F046F91D
:1048000001F0B2FDF0EE680A01EE100AB0EE490ABE
:10481000FFF7FEFEF0EE408A03E0F0EE418AF0EE94
:10482000419A19EE900A01F091FA19A3D3E90023F5
:1048300001F0E0FA01F078FDC5B218EE100A01F0BF
:1048400085FA13A3D3E9002301F0D4FA01F06CFD3B
:10485000C4B218EE900A01F079FA0DA3D3E900234F
:1048600001F0C8FA01F060FDC0B200902B4622466C
:1048700049464046FFF761FE03B0BDEC048BBDE83E
:10488000F08300BFAFF30080555555555555D53FC2
:104890000000000000E06F400000F03F00F040B872
:1048A00008B5024B1B689B68019308BD48020300D2
:1048B00008B5024B1B681B69019308BD4802030041
:1048C00008B5024B1B685B69019308BD48020300F1
:1048D00008B5024B1B685B6C019308BD48020300DE
:1048E00008B5024B1B689B6C019308BD480203008E
:1048F00008B5024B1B685B68019308BD18020300F2
:1049000008B5024B1B68DB68019308BD1802030061
:1049100008B5024B1B685B69019308BD18020300D0
:1049200008B5024B1B681B68019308BD2C020300ED
:1049300008B5024B1B689B68019308BD2C0203005D
:1049400008B5024B1B68DB68019308BD2C0203000D
:1049500008B5024B1B681B69019308BD2C020300BC
:1049600008B5024B1B685B69019308BD2C0203006C
:1049700008B5024B1B681B6A019308BD280203009F
:1049800008B5024B1B685B6A019308BD280203004F
:1049900008B5024B1B689B6A019308BD28020300FF
:1049A00008B5024B1B68DB6A019308BD28020300AF
:1049B00008B5024B1B681B6B019308BD280203005E
:1049C00008B5024B1B685B6B019308BD280203000E
:1049D00008B5024B1B681B6C019308BD280203003D
:1049E00008B5024B1B685B69019308BD64020300B4
:1049F00008B5024B1B689B68019308BD6802030061
:104A000008B5024B1B68DB68019308BD6802030010
:104A100008B5024B1B68DB69019308BD3002030037
:104A200008B5024B1B681B6A019308BD30020300E6
:104A300008B5024B1B681B68019308BD3C020300CC
:104A400008B5024B1B68DB68019308BD3C020300FC
:104A500008B5024B1B681B69019308BD3C020300AB
:104A600008B5024B1B685B69019308BD3C0203005B
:104A700008B5024B1B689B69019308BD3C0203000B
:104A800008B5024B1B68DB69019308BD3C020300BB
:104A900008B5024B1B681B6A019308BD3C0203006A
:104AA00008B5024B1B689B6A019308BD3C020300DA
:104AB00008B5024B1B681B68019308BD4C0203003C
:104AC00008B5024B1B681B69019308BD4C0203002B
:104AD00008B5024B1B685B69019308BD4C020300DB
:104AE00008B5024B1B689B69019308BD4C0203008B
:104AF00008B5024B1B68DB69019308BD4C0203003B
:104B000008B5024B1B681B6A019308BD4C020300E9
:104B100008B5024B1B685B68019308BD20020300C7
:104B200008B5024B1B685B69019308BD20020300B6
:104B300008B5034B1B68D3F88830019308BD00000B
:104B40002002030008B5034B1B68D3F8943001938F
:104B500008BD00002002030008B5024B1B68DB6B98
:104B6000019308BD4402030008B5024B1B685B6853
:104B7000019308BD4002030008B5024B1B689B6807
:104B8000019308BD4002030008B5024B1B68DB68B7
:104B9000019308BD4002030008B5024B1B681B6966
:104BA000019308BD4002030008B5024B1B685B6916
:104BB000019308BD4002030008B5024B1B689B69C6
:104BC000019308BD4002030008B5024B1B68DB6976
:104BD000019308BD4002030008B5024B1B681B6A25
:104BE000019308BD4002030008B5024B1B681B6B14
:104BF000019308BD4002030008B5024B1B685B6BC4
:104C0000019308BD4002030008B5024B1B681B68F6
:104C1000019308BD1C02030008B5024B1B685B68CA
:104C2000019308BD1C02030008B5024B1B681B6BF7
:104C3000019308BD1C0203000021FFF771BF10B5EE
:104C40000446006808B1FFF74BFE204610BD000087
:104C500010B5064C002320462360FFF739FE20469E
:104C6000034A0449BDE8104000F0A2BDCCE3032094
:104C7000ACE303203F4C0D0010B58368044613B12C
:104C8000032201469847204610BD00221146406885
:104C9000FFF7A2BF002211464068FFF7ADBF002218
:104CA0004068FFF7A1BF002281F001014068FFF7D3
:104CB0008BBF00231A4619464068FFF77DBF0023CB
:104CC0001A4619464068FFF76FBF00221146406838
:104CD000FFF762BF002211464068FFF74DBF002278
:104CE00002214068FFF750BF00231A464068FFF7D3
:104CF0003BBF0000024B03225A60024A1A60704711
:104D0000D0E3032004650D007047F8B5064615464C
:104D10000C468F18BC4206D0336814F8011B9B6800
:104D200030469847F6E72846F8BD0022007CFFF79A
:104D30001FBE0021007CFFF723BE0021007CFFF78F
:104D400027BE0021007CFFF72BBE0021007CFFF76F
:104D50002FBE10B51421044600F02FFD204610BDD3
:104D600010B50446002363604FF47A73A360044BCC
:104D70002174084623601146FFF72AFE204610BD25
:104D800038650D000021007CFFF71ABE704710B592
:104D90001821044600F011FD204610BDF0B5037D3A
:104DA000062B8DB00E4600F104074FF0000402D030
:104DB00000F1080518E00CAD394605F8304D2F23F9
:104DC0002A460A20FFF70CFE284601F07DFB3368D7
:104DD0000246DB682946304698470FE024B12E2171
:104DE000304600F0D5F9044415F8011D0A2230467A
:104DF00000F0D1F9BD420444F0D120460DB0F0BD21
:104E000010B5054B0446112240F8043B002101F087
:104E10001CFB204610BD00BF60650D000346074A1D
:104E200010B543F8042B01F1100251F8044B43F87C
:104E3000044B9142F9D10A781A7010BD60650D00DB
:104E400010B59DF8084044EA032343EA024242EACF
:104E5000016104234160037510BD37B50D788B786F
:104E60004A78C97800912946FFF7EAFF03B030BDC0
:104E7000014B024A1A607047D8E30320DF650D003A
:104E8000002211464068FFF7A7BE00221146406885
:104E9000FFF7B2BE00224068FFF7A6BE002281F0F5
:104EA00001014068FFF790BE00231A4601214068C7
:104EB000FFF782BE00231A4619464068FFF774BE0A
:104EC000002211464068FFF767BE00221146406885
:104ED000FFF752BE002202214068FFF755BE0023B3
:104EE0001A464068FFF740BE38B5054688B10468E9
:104EF0004CB1A3681BB103222146204698471021DC
:104F0000204600F05AFC28461421BDE8384000F045
:104F100054BC38BD10B103685B681847704710B5C2
:104F200003680446BBB15868FFF7BAFC78B9236838
:104F30005A7C12B95868FFF7BBFC23685868FFF722
:104F4000BFFC20680023236028B1FFF7CDFF206855
:104F500008B1FFF7C9FF204610BD38B50446D0F8A8
:104F6000C40108B1FFF79BF8D4F8C00108B1FFF7FE
:104F7000B7FCD4F8BC5135B12846FFF7D0FF042167
:104F8000284600F01AFC206808B1FFF7C3FF20464E
:104F900038BD000010B5044B044640F8083BFFF74D
:104FA000DCFF204610BD00BF58660D0038B50E4C22
:104FB0000E4B23600025022304F5E4706360A560B6
:104FC000C4F8C451C4F8C851FFF782FC084BC4F8B8
:104FD000CC5184F8D05123602046064A0649BDE8EA
:104FE000384000F0E5BB00BFDCE303208C660D0019
:104FF00058660D00ACE30320954F0D0000231A46C0
:105000004068FFF7B1BD002202214068FFF7BCBD38
:10501000002211464068FFF7AFBD002211464068EC
:10502000FFF7BABD00231A4619464068FFF7BCBD1A
:1050300000231A4619464068FFF7BEBD002281F0E2
:1050400001014068FFF7C0BD00224068FFF7CCBDFA
:10505000002211464068FFF7CFBD0022114640688C
:10506000FFF7BABD2DE9F043002495B016460D4672
:105070000746FFF7C5FE214620220CA8009401F048
:10508000E4F940230C9321466B460CAA3046FFF707
:10509000B7FC0446002844D1024601216868FFF7A6
:1050A0007BFD0221804622466868FFF775FD009E61
:1050B00081462146002E34D0002932D17368022B5C
:1050C00002D00A2B09D02AE0B8F1000F27D071696D
:1050D00038460431FFF7C1FE20E0B9F1000F1ED0C1
:1050E0007469112201A801F0B0F906238DF814307B
:1050F00001AD04F108031834186859682A4603C240
:105100000833A3421546F7D101A906A807ADFFF75A
:1051100085FE0FCD3C1D0FC42B6823700121F6695D
:10512000C8E70098FFF764FC384615B0BDE8F08387
:10513000024B034A1A6000225A607047B0E5032010
:105140008C660D00F8B506460D468F180024BD424A
:105150000CD0336815F8011B9B683046984700282F
:1051600001DB0444F3E7002C08BF04462046F8BDE9
:1051700070B505460C46084649B101F0A5F92B6803
:10518000024621462846DB68BDE87040184770BDDE
:1051900003689B68184730B58BB00B4600218DF82B
:1051A0002410012A98BF0A220DF12304B3FBF2F563
:1051B00005FB123303F0FF03092B94BF3033373361
:1051C000DBB2214604F801392B46002DEED1FFF762
:1051D000CFFF0BB030BD10B50446FFF74DFD2046A4
:1051E00010BD00000348044A04490023836000F016
:1051F000DFBA00BFB8E50320ACE30320D7510D00B0
:10520000704710B50C21044600F0D7FA204610BDB7
:1052100010B5054B0360044601710846FFF7F8FB23
:105220000023A360204610BDC0660D000079FFF783
:10523000F7BB10B50446006818B1FFF7EDFC00237A
:10524000236010BD10B50446FFF7F3FF204610BDE4
:1052500010B5094C00204FF6FF732060A080A071AC
:1052600020816381FFF754FC2046044A0449BDE8CD
:10527000104000F09DBA00BFC8E50320ACE3032056
:1052800045520D00024B1A68024B1A60704700BF6E
:1052900044E30320D4E5032070474174704708B508
:1052A000007CFFF7FDFB20EAE07008BD08B5007C3C
:1052B000FFF7CEFB20EAE07008BD08B5007CFFF7E1
:1052C000D7FB30EA200028BF4FF0FF3008BD08B5FB
:1052D000007CFFF7C5FB30EA200028BF4FF0FF300D
:1052E00008BD007CFFF7CCBB10B51421044600F0CC
:1052F00064FA204610BD70B5457C04460E4625B9BB
:10530000007CFFF7CDFB002805DD3146207CBDE8A1
:105310007040FFF795BB284670BD000010B50446ED
:1053200008461146002262604FF47A72A260054A74
:1053300022600122207462741A46FFF779FB20462E
:1053400010BD00BFFC660D00007CFFF7A1BB000094
:1053500038B50C4D296811F0010411D12846FEF72B
:10536000A0FE68B1084A094B09482146FFF7D6FF5D
:105370002846FEF79BFE074A0749054800F018FA41
:10538000034838BD70E6032074E60320ECE50320F3
:10539000D8E50320ACE3032099520D004174704717
:1053A000704708B50021007CFFF79AFB30EA200027
:1053B00028BF4FF0FF3008BD08B50121007CFFF782
:1053C0008FFB30EA200028BF4FF0FF3008BD08B542
:1053D000007CFFF77DFB20EAE07008BD08B5007C8B
:1053E000FFF76EFB20EAE07008BD007CFFF788BB8A
:1053F00010B51421044600F0E0F9204610BD38B580
:105400000446007C0D46FFF763FB002801DC607C4E
:1054100028B12946207CFFF76BFB20EAE07038BDFD
:1054200010B50446002363604FF47A73A360054B04
:10543000236001230846217463741146FFF738FB8B
:10544000204610BD2C670D0010B514220446002123
:1054500000F0FBFF204610BD30B50E4D87B001A80F
:10546000FFF7F2FF296811F0010410D12846FEF77A
:1054700018FE60B101AA21460748FFF7D1FF284670
:10548000FEF714FE054A0649034800F091F9024868
:1054900007B030BDF8E60320FCE60320ACE30320B0
:1054A000A1530D00002211464068FFF775BB002292
:1054B00011464068FFF790BB002211464068FFF795
:1054C0009BBB00224068FFF78FBB002281F00101E7
:1054D0004068FFF779BB00231A4619464068FFF77A
:1054E0006BBB00231A4619464068FFF75DBB0022DC
:1054F00011464068FFF740BB002202214068FFF7D9
:1055000043BB00231A464068FFF72EBB024B042220
:105510005A60024A1A60704710E703205C670D006A
:1055200008B50C4B33B1FFF797FF03681B69984729
:10553000002809DC084B63B1FFF70AFF03681B6909
:105540009847002803DC08BDAFF30080F2E7AFF313
:10555000008008BD000000000000000008B5FFF753
:10556000DFFFFFF7D5F9014B186008BD20E70320E6
:105570000248034A0349121A00F05CBF00F40320FA
:1055800004F4032030680D0007B5002300931A4689
:105590006FF07701FFF7D6FA03B05DF804FB000067
:1055A00007B543880A2B08D0502B09D1094B1B683B
:1055B0003BB103B05DF804EB1847FFF7E5FF06E0E9
:1055C000002300931A466FF07701FFF7BBFA03B090
:1055D0005DF804FB18E7032038B5104C104D236824
:1055E000AB42104B0CBF012200221A7002D0FFF711
:1055F000BFFF2560FFF77CF9044600F03DFF0A4B32
:1056000013B12046AFF3008000210748FFF7A4FA4A
:1056100000210648BDE83840FFF78ABA00F40320AD
:105620001E1C279A1CE7032000000000A1550D0056
:1056300010B5044600F09CF8FFF7F8FD28B1A4F17E
:105640000B03022B01D8002010BD00F06BF8FFF710
:1056500099FB08B1012CF6D9FFF77AFEFFF774FE2B
:1056600018B1A4F10903012BEDD9232C8CBF002024
:10567000012010BD232838B504460D460AD8FF295D
:1056800008D0FFF7D5FF28B129462046BDE83840AD
:10569000FFF74EB938BD38B504460D46FFF750F94F
:1056A000FF2810D0062804D84D2323FA00F0C307A2
:1056B00009D42046FFF7BCFF28B129462046BDE8A3
:1056C0003840FFF745B938BD10B50446FFF738F943
:1056D0000438C0B2012808D92046FFF7A9FF20B13D
:1056E0002046BDE81040FFF73BB9002010BD000088
:1056F00070B5044614252A46094E002100F0A5FE87
:10570000258020253146A5602561284600F06FF8E8
:1057100031466060284600F06AF8E060204670BDBF
:1057200088670D0030B50E4D296811F0010487B06F
:1057300013D12846FEF7B5FC78B101A8FFF7D8FFD2
:1057400001AA21460748FFF70BFB2846FEF7AEFCEF
:10575000054A0649034800F02BF8024807B030BD5F
:1057600024E7032028E70320ACE30320094D0D00C4
:1057700038B50B4D296811F001040FD12846FEF70A
:1057800090FC58B121460748FFF742FD2846FEF736
:105790008DFC054A0549034800F00AF8014838BD68
:1057A00048E703203CE70320ACE3032001520D004F
:1057B0000B460146184600F02FBEFEF76EBC0000F7
:1057C000024B1868BFF35F8F704700BF4CE70320A0
:1057D00010B5002814BF044601242046FFF714FA30
:1057E00020B9FFF7EDFF08B18047F6E710BDFFF7DE
:1057F000EFBF0000244B1A68D0075CBF01221A607B
:10580000224B1A68D1075CBF01221A60204B1A682C
:10581000D2075CBF01221A601E4B1A68D0075CBF1A
:1058200001221A601C4B1A68D1075CBF01221A6062
:105830001A4B1A68D2075CBF01221A60184B1A680B
:10584000D0075CBF01221A60164B1A68D1075CBFF3
:1058500001221A60144B1A68D2075CBF01221A6039
:10586000124B1A68D0075CBF01221A60104B1A68ED
:10587000D1075CBF01221A600E4B1A68D2075CBFC9
:1058800001221A60704700BF7CE7032078E70320FD
:1058900074E7032070E703206CE7032068E7032028
:1058A00064E7032060E703205CE7032058E7032058
:1058B00054E7032050E70320184B1A68D1075CBF58
:1058C00001221A60164B1A68D2075CBF01221A60C7
:1058D000144B1A68D0075CBF01221A60124B1A6879
:1058E000D1075CBF01221A60104B1A68D2075CBF57
:1058F00001221A600E4B1A68D0075CBF01221A60A1
:105900000C4B1A68D1075CBF01221A600A4B1A6857
:10591000D2075CBF01221A60704700BF9CE70320DA
:1059200098E7032094E7032090E703208CE7032007
:1059300088E7032084E7032080E70320184B1A68D8
:10594000D1075CBF01221A60164B1A68D2075CBFF0
:1059500001221A60144B1A68D0075CBF01221A603A
:10596000124B1A68D1075CBF01221A60104B1A68EB
:10597000D2075CBF01221A600E4B1A68D0075CBFC9
:1059800001221A600C4B1A68D1075CBF01221A6011
:105990000A4B1A68D2075CBF01221A60704700BF29
:1059A000BCE70320B8E70320B4E70320B0E70320F7
:1059B000ACE70320A8E70320A4E70320A0E7032027
:1059C000244B1A68D0075CBF01221A60224B1A6868
:1059D000D1075CBF01221A60204B1A68D2075CBF56
:1059E00001221A601E4B1A68D0075CBF01221A60A0
:1059F0001C4B1A68D1075CBF01221A601A4B1A6847
:105A0000D2075CBF01221A60184B1A68D0075CBF2E
:105A100001221A60164B1A68D1075CBF01221A6076
:105A2000144B1A68D2075CBF01221A60124B1A6825
:105A3000D0075CBF01221A60104B1A68D1075CBF07
:105A400001221A600E4B1A68D2075CBF01221A604D
:105A5000704700BFECE70320E8E70320E4E70320FA
:105A6000E0E70320DCE70320D8E70320D4E70320A6
:105A7000D0E70320CCE70320C8E70320C4E70320D6
:105A8000C0E7032081F0004102E000BF83F0004343
:105A900030B54FEA41044FEA430594EA050F08BFC9
:105AA00090EA020F1FBF54EA000C55EA020C7FEA8D
:105AB000645C7FEA655C00F0E2804FEA5454D4EB0A
:105AC0005555B8BF6D420CDD2C4480EA020281EAD4
:105AD000030382EA000083EA010180EA020281EA0C
:105AE0000303362D88BF30BD11F0004F4FEA01315E
:105AF0004FF4801C4CEA113102D0404261EB41016D
:105B000013F0004F4FEA03334CEA133302D05242F2
:105B100063EB430394EA050F00F0A780A4F10104AE
:105B2000D5F1200E0DDB02FA0EFC22FA05F28018E8
:105B300041F1000103FA0EF2801843FA05F35941CE
:105B40000EE0A5F120050EF1200E012A03FA0EFC4D
:105B500028BF4CF0020C43FA05F3C01851EBE37177
:105B600001F0004507D54FF0000EDCF1000C7EEB94
:105B700000006EEB0101B1F5801F1BD3B1F5001FD2
:105B80000CD349085FEA30004FEA3C0C04F10104F1
:105B90004FEA445212F5800F80F09A80BCF1004F1A
:105BA00008BF5FEA500C50F1000041EB045141EA9C
:105BB000050130BD5FEA4C0C404141EB010111F49D
:105BC000801FA4F10104E9D191F0000F04BF014648
:105BD0000020B1FA81F308BF2033A3F10B03B3F126
:105BE00020020CDA0C3208DD02F1140CC2F10C02B6
:105BF00001FA0CF021FA02F10CE002F11402D8BF14
:105C0000C2F1200C01FA02F120FA0CFCDCBF41EADF
:105C10000C019040E41AA2BF01EB0451294330BDAE
:105C20006FEA04041F3C1CDA0C340EDC04F114048B
:105C3000C4F1200220FA04F001FA02F340EA030062
:105C400021FA04F345EA030130BDC4F10C04C4F1A8
:105C5000200220FA02F001FA04F340EA0300294688
:105C600030BD21FA04F0294630BD94F0000F83F4D2
:105C7000801306BF81F480110134013D4EE77FEAB5
:105C8000645C18BF7FEA655C29D094EA050F08BF01
:105C900090EA020F05D054EA000C04BF19461046E2
:105CA00030BD91EA030F1EBF0021002030BD5FEA26
:105CB000545C05D14000494128BF41F0004130BD4E
:105CC00014F580043CBF01F5801130BD01F00045A2
:105CD00045F0FE4141F470014FF0000030BD7FEA15
:105CE000645C1ABF194610467FEA655C1CBF0B4610
:105CF000024650EA013406BF52EA033591EA030F27
:105D000041F4002130BD00BF90F0000F04BF00211E
:105D1000704730B54FF4806404F132044FF0000551
:105D20004FF0000150E700BF90F0000F04BF0021CA
:105D3000704730B54FF4806404F1320410F0004530
:105D400048BF40424FF000013EE700BF42004FEA2B
:105D5000E2014FEA31014FEA02701FBF12F07F43A8
:105D600093F07F4F81F06051704792F0000F14BFA5
:105D700093F07F4F704730B54FF4607401F00045E9
:105D800021F0004120E700BF50EA010208BF704740
:105D900030B54FF000050AE050EA010208BF704735
:105DA00030B511F0004502D5404261EB41014FF49E
:105DB000806404F132045FEA915C3FF4DCAE4FF0A2
:105DC00003025FEADC0C18BF03325FEADC0C18BF89
:105DD000033202EBDC02C2F1200300FA03FC20FADA
:105DE00002F001FA03FE40EA0E0021FA02F1144427
:105DF000C1E600BF70B54FF0FF0C4CF4E06C1CEA3C
:105E000011541DBF1CEA135594EA0C0F95EA0C0FB0
:105E100000F0DEF82C4481EA030621EA4C5123EA23
:105E20004C5350EA013518BF52EA033541F4801152
:105E300043F4801338D0A0FB02CE4FF00005E1FB05
:105E400002E506F00042E0FB03E54FF00006E1FB4F
:105E500003569CF0000F18BF4EF0010EA4F1FF0492
:105E6000B6F5007F64F5407404D25FEA4E0E6D41D2
:105E700046EB060642EAC62141EA55514FEAC520E3
:105E800040EA5E504FEACE2EB4F1FD0C88BFBCF55F
:105E9000E06F1ED8BEF1004F08BF5FEA500E50F110
:105EA000000041EB045170BD06F0004646EA0101D6
:105EB00040EA020081EA0301B4EB5C04C2BFD4EB08
:105EC0000C0541EA045170BD41F480114FF0000E01
:105ED000013C00F3AB8014F1360FDEBF002001F06F
:105EE000004170BDC4F10004203C35DA0C341BDCE9
:105EF00004F11404C4F1200500FA05F320FA04F0BB
:105F000001FA05F240EA020001F0004221F00041EE
:105F100010EBD37021FA04F642EB06015EEA430E61
:105F200008BF20EAD37070BDC4F10C04C4F1200591
:105F300000FA04F320FA05F001FA04F240EA020044
:105F400001F0004110EBD37041F100015EEA430E15
:105F500008BF20EAD37070BDC4F1200500FA05F235
:105F60004EEA020E20FA04F301FA05F243EA0203B4
:105F700021FA04F001F0004121FA04F220EA0200C3
:105F800000EBD3705EEA430E08BF20EAD37070BD09
:105F900094F0000F0FD101F00046400041EB0101E9
:105FA00011F4801F08BF013CF7D041EA060195F0CB
:105FB000000F18BF704703F00046520043EB030385
:105FC00013F4801F08BF013DF7D043EA0603704772
:105FD00094EA0C0F0CEA135518BF95EA0C0F0CD07D
:105FE00050EA410618BF52EA4306D1D181EA0301C3
:105FF00001F000414FF0000070BD50EA410606BFBD
:106000001046194652EA430619D094EA0C0F02D101
:1060100050EA013613D195EA0C0F05D152EA033646
:106020001CBF104619460AD181EA030101F0004164
:1060300041F0FE4141F470014FF0000070BD41F0AD
:10604000FE4141F4780170BD70B54FF0FF0C4CF487
:10605000E06C1CEA11541DBF1CEA135594EA0C0FA6
:1060600095EA0C0F00F0A7F8A4EB050481EA030EF3
:1060700052EA03354FEA013100F088804FEA0333DA
:106080004FF0805545EA131343EA12634FEA0222A8
:1060900045EA111545EA10654FEA00260EF0004169
:1060A0009D4208BF964244F1FD0404F5407402D2BB
:1060B0005B084FEA3202B61A65EB03055B084FEA4C
:1060C00032024FF480104FF4002CB6EB020E75EB49
:1060D000030E22BFB61A754640EA0C005B084FEA71
:1060E0003202B6EB020E75EB030E22BFB61A7546EE
:1060F00040EA5C005B084FEA3202B6EB020E75EB39
:10610000030E22BFB61A754640EA9C005B084FEAB0
:106110003202B6EB020E75EB030E22BFB61A7546BD
:1061200040EADC0055EA060E18D04FEA051545EAAC
:1061300016754FEA06164FEAC30343EA52734FEA55
:10614000C2025FEA1C1CC0D111F4801F0BD141EACE
:1061500000014FF000004FF0004CB6E711F4801F33
:1061600004BF01430020B4F1FD0C88BFBCF5E06F13
:106170003FF6AFAEB5EB030C04BFB6EB020C5FEA23
:10618000500C50F1000041EB045170BD0EF0004E78
:106190004EEA113114EB5C04C2BFD4EB0C0541EAAA
:1061A000045170BD41F480114FF0000E013C90E6A7
:1061B00045EA060E8DE60CEA135594EA0C0F08BF6B
:1061C00095EA0C0F3FF43BAF94EA0C0F0AD150EA6A
:1061D00001347FF434AF95EA0C0F7FF425AF1046FD
:1061E00019462CE795EA0C0F06D152EA03353FF425
:1061F000FDAE1046194622E750EA410618BF52EAA2
:1062000043067FF4C5AE50EA41047FF40DAF52EA75
:1062100043057FF4EBAE12E74FF0FF3C06E000BF12
:106220004FF0010C02E000BF4FF0010C4DF804CD1F
:106230004FEA410C7FEA6C5C4FEA430C18BF7FEADF
:106240006C5C1BD001B050EA410C0CBF52EA430C0D
:1062500091EA030F02BF90EA020F0020704710F18D
:10626000000F91EA030F58BF994208BF90422CBF1C
:10627000D8176FEAE37040F0010070474FEA410C15
:106280007FEA6C5C02D150EA013C07D14FEA430C33
:106290007FEA6C5CD6D152EA033CD3D05DF8040BA4
:1062A000704700BF8446104662468C4619466346D6
:1062B00000E000BF01B5FFF7B7FF002848BF10F1AD
:1062C000000F01BD4DF808EDFFF7F4FF0CBF0120F2
:1062D00000205DF808FB00BF4DF808EDFFF7EAFF6E
:1062E00034BF012000205DF808FB00BF4DF808ED29
:1062F000FFF7E0FF94BF012000205DF808FB00BF1E
:106300004DF808EDFFF7CEFF94BF012000205DF8A7
:1063100008FB00BF4DF808EDFFF7C4FF34BF0120B4
:1063200000205DF808FB00BF4A0011D212F50012F0
:1063300011D20DD56FF47873B3EB62520ED44FEADD
:10634000C12343F0004343EA505323FA02F070475D
:106350004FF00000704750EA013002D14FF0FF309B
:1063600070474FF0000070474FEA4102B2F1E0433E
:1063700024BFB3F5001CDCF1FE5C0DD901F0004C2C
:106380004FEAC0024CEA5070B2F1004F40EB83007C
:1063900008BF20F00100704711F0804F21D113F1A8
:1063A0003872BCBF01F00040704741F480114FEAE1
:1063B0005252C2F11802C2F1200C10FA0CF320FA6A
:1063C00002F018BF40F001004FEAC1234FEAD32387
:1063D00003FA0CFC40EA0C0023FA02F34FEA4303F1
:1063E000CCE77FEA625307D150EA01331EBF4FF07A
:1063F000FE4040F44000704701F0004040F0FE4095
:1064000040F40000704700BF024B0A46014618687E
:1064100000F023B8A8E3032010B5054C13462CB1B7
:106420000A4601460220AFF3008010BD204610BD91
:106430000000000010B5431E0A44914204D011F838
:10644000014B03F8014FF8E710BD024403469342A5
:1064500002D003F8011BFAE7704738B502FB01F4DC
:106460002146FEF7E1FB054618B122460021FFF761
:10647000ECFF284638BD000038B5124B1C68A36BF2
:106480000546D3B91820FEF7BFFB43F20E33A063D5
:1064900003804AF6CD33438041F2342383804EF2A9
:1064A0006D63C3804DF6EC630381052343810B23A9
:1064B000838101220023C0E90423A36B00221D6114
:1064C0005A6138BDA8E30320034613F8012B002AC4
:1064D000FBD1181A0138704721400D005D400D00B6
:1064E00089400D008D400D00000000003F065B4F0D
:1064F000666D7D077F6F777C395E797100000000E3
:1065000000000000E94C0D00DF4C0D00D54C0D00E3
:10651000CB4C0D00BF4C0D00B34C0D00A74C0D0033
:106520009F4C0D00954C0D008B4C0D0065500D00DF
:106530000000000000000000094D0D00534D0D004B
:106540002B4D0D000B4D0D00334D0D003B4D0D003F
:10655000434D0D004B4D0D000000000000000000F9
:106560009D4D0D008D4D0D008F4D0D0062617564C8
:106570000053657269616C0053657269616C31002A
:106580007479706500706172616D00636D6400699B
:106590006400686E64007374726D0066696C7400E8
:1065A0006C766C0061646448616E646C6572007244
:1065B000656D6F766548616E646C657200656E75B9
:1065C0006D48616E646C657273004A534F4E53742C
:1065D0007265616D4C6F6748616E646C65720061D5
:1065E000707000253031307520005D20002564007A
:1065F0002C200028293A2000205B00636F6465206E
:106600003D200025690064657461696C73203D203C
:10661000000D0A0066006C6E00666E00636F6465B4
:106620000064657461696C006E6F6E650074726100
:10663000636500696E666F007761726E00657272E5
:106640006F720070616E696300616C6C0000000025
:106650000000000000000000DF4E0D00D54E0D00D0
:10666000CB4E0D00C14E0D00B54E0D00A94E0D00D4
:106670009D4E0D00954E0D008B4E0D00814E0D0070
:1066800065500D000000000000000000FD4F0D00EF
:1066900007500D0011500D001B500D0025500D002E
:1066A00031500D003D500D0049500D0051500D006E
:1066B0005B500D0065500D00000000000000000060
:1066C00001520D0003520D005A00252B3033643A5D
:1066D000253032750025592D256D2D25645425480A
:1066E0003A254D3A2553257A0061736374696D65C7
:1066F00000000000000000000000000099520D00A2
:10670000E9520D00F7520D0045510D00AD520D003C
:10671000CF520D00BB520D00E3520D009B520D00F5
:106720009F520D000000000000000000A1530D006A
:10673000F1530D00FF530D0045510D00DD530D00C9
:10674000A3530D00B9530D00EB530D00CF530D00B3
:106750009D530D00000000000000000003550D00D7
:10676000F9540D00EF540D00A5540D00E3540D0035
:10677000D7540D00CB540D00C3540D00B9540D0077
:10678000AF540D0065500D00000000000000000037
:1067900000000000000000000000000000000000F9
:1067A00000000000000000000000000000000000E9
:1067B00000000000000000000000000000000000D9
:1067C00000000000000000000000000000000000C9
:1067D00000000000000000000000000000000000B9
:1067E0000000000000000000000000004300000066
:1067F00079420D0061440D009D480D00514C0D0083
:10680000F54C0D00714E0D00AD4F0D0031510D00D6
:10681000E5510D0051520D0085520D000D550D0032
:10682000F5570D00B9580D003D590D00C1590D0027
:046830000000000064
:106834000700000002000000E9660D0000000000EF
:106844008C670D00AC670D00CC670D0000000000E4
:10685400000000000000000000000000EC670D00D4
:106864000000000000000000000000000000000024
:106874000000000000000000000000000000000014
:106884000000000000000000000000000000000004
:1068940000000000000000000000000048E30320A6
:1068A400FFFFFFFF00000102030405060708090AB1
:1068B4000B0C0D0E0F101112131415161718191AAC
:0868C4001B1C1D1E1F202800F3
:0468CC0078563412B4
:04000003D0004020C9
:00000001FF
